{
  "contractName": "Voter",
  "abi": [
    {
      "inputs": [
        {
          "internalType": "address",
          "name": "_ballot",
          "type": "address"
        }
      ],
      "stateMutability": "nonpayable",
      "type": "constructor"
    },
    {
      "inputs": [],
      "name": "ballot",
      "outputs": [
        {
          "internalType": "contract Ballot",
          "name": "",
          "type": "address"
        }
      ],
      "stateMutability": "view",
      "type": "function",
      "constant": true
    },
    {
      "inputs": [
        {
          "internalType": "address",
          "name": "",
          "type": "address"
        }
      ],
      "name": "users",
      "outputs": [
        {
          "internalType": "bytes32",
          "name": "name",
          "type": "bytes32"
        },
        {
          "internalType": "bytes32",
          "name": "email",
          "type": "bytes32"
        },
        {
          "internalType": "bool",
          "name": "registered",
          "type": "bool"
        }
      ],
      "stateMutability": "view",
      "type": "function",
      "constant": true
    },
    {
      "inputs": [
        {
          "internalType": "bytes32",
          "name": "_name",
          "type": "bytes32"
        },
        {
          "internalType": "bytes32",
          "name": "_email",
          "type": "bytes32"
        }
      ],
      "name": "registerUser",
      "outputs": [],
      "stateMutability": "nonpayable",
      "type": "function"
    },
    {
      "inputs": [
        {
          "internalType": "string",
          "name": "_candidate",
          "type": "string"
        }
      ],
      "name": "castVote",
      "outputs": [],
      "stateMutability": "nonpayable",
      "type": "function"
    },
    {
      "inputs": [],
      "name": "isEligible",
      "outputs": [
        {
          "internalType": "bool",
          "name": "",
          "type": "bool"
        }
      ],
      "stateMutability": "view",
      "type": "function",
      "constant": true
    }
  ],
  "bytecode": "0x608060405234801561001057600080fd5b50604051610bd4380380610bd4833981810160405281019061003291906100db565b806000806101000a81548173ffffffffffffffffffffffffffffffffffffffff021916908373ffffffffffffffffffffffffffffffffffffffff16021790555050610108565b600080fd5b600073ffffffffffffffffffffffffffffffffffffffff82169050919050565b60006100a88261007d565b9050919050565b6100b88161009d565b81146100c357600080fd5b50565b6000815190506100d5816100af565b92915050565b6000602082840312156100f1576100f0610078565b5b60006100ff848285016100c6565b91505092915050565b610abd806101176000396000f3fe608060405234801561001057600080fd5b5060043610610074576000357c01000000000000000000000000000000000000000000000000000000009004806343e1ca491461007957806395788535146100975780639cc2d993146100b3578063a87430ba146100cf578063ac3910a214610101575b600080fd5b61008161011f565b60405161008e919061050c565b60405180910390f35b6100b160048036038101906100ac9190610571565b610235565b005b6100cd60048036038101906100c891906106f7565b61035d565b005b6100e960048036038101906100e4919061079e565b610496565b6040516100f8939291906107da565b60405180910390f35b6101096104cd565b6040516101169190610870565b60405180910390f35b6000600160003373ffffffffffffffffffffffffffffffffffffffff1673ffffffffffffffffffffffffffffffffffffffff16815260200190815260200160002060020160009054906101000a900460ff168015610230575060008054906101000a900473ffffffffffffffffffffffffffffffffffffffff1673ffffffffffffffffffffffffffffffffffffffff1663a3ec138d336040518263ffffffff167c01000000000000000000000000000000000000000000000000000000000281526004016101ed919061089a565b602060405180830381865afa15801561020a573d6000803e3d6000fd5b505050506040513d601f19601f8201168201806040525081019061022e91906108e1565b155b905090565b600160003373ffffffffffffffffffffffffffffffffffffffff1673ffffffffffffffffffffffffffffffffffffffff16815260200190815260200160002060020160009054906101000a900460ff16156102c5576040517f08c379a00000000000000000000000000000000000000000000000000000000081526004016102bc9061096b565b60405180910390fd5b604051806060016040528083815260200182815260200160011515815250600160003373ffffffffffffffffffffffffffffffffffffffff1673ffffffffffffffffffffffffffffffffffffffff168152602001908152602001600020600082015181600001556020820151816001015560408201518160020160006101000a81548160ff0219169083151502179055509050505050565b600160003373ffffffffffffffffffffffffffffffffffffffff1673ffffffffffffffffffffffffffffffffffffffff16815260200190815260200160002060020160009054906101000a900460ff166103ec576040517f08c379a00000000000000000000000000000000000000000000000000000000081526004016103e3906109d7565b60405180910390fd5b60008054906101000a900473ffffffffffffffffffffffffffffffffffffffff1673ffffffffffffffffffffffffffffffffffffffff16639cc2d993826040518263ffffffff167c01000000000000000000000000000000000000000000000000000000000281526004016104619190610a65565b600060405180830381600087803b15801561047b57600080fd5b505af115801561048f573d6000803e3d6000fd5b5050505050565b60016020528060005260406000206000915090508060000154908060010154908060020160009054906101000a900460ff16905083565b60008054906101000a900473ffffffffffffffffffffffffffffffffffffffff1681565b60008115159050919050565b610506816104f1565b82525050565b600060208201905061052160008301846104fd565b92915050565b6000604051905090565b600080fd5b600080fd5b6000819050919050565b61054e8161053b565b811461055957600080fd5b50565b60008135905061056b81610545565b92915050565b6000806040838503121561058857610587610531565b5b60006105968582860161055c565b92505060206105a78582860161055c565b9150509250929050565b600080fd5b600080fd5b6000601f19601f8301169050919050565b7f4e487b7100000000000000000000000000000000000000000000000000000000600052604160045260246000fd5b610604826105bb565b810181811067ffffffffffffffff82111715610623576106226105cc565b5b80604052505050565b6000610636610527565b905061064282826105fb565b919050565b600067ffffffffffffffff821115610662576106616105cc565b5b61066b826105bb565b9050602081019050919050565b82818337600083830152505050565b600061069a61069584610647565b61062c565b9050828152602081018484840111156106b6576106b56105b6565b5b6106c1848285610678565b509392505050565b600082601f8301126106de576106dd6105b1565b5b81356106ee848260208601610687565b91505092915050565b60006020828403121561070d5761070c610531565b5b600082013567ffffffffffffffff81111561072b5761072a610536565b5b610737848285016106c9565b91505092915050565b600073ffffffffffffffffffffffffffffffffffffffff82169050919050565b600061076b82610740565b9050919050565b61077b81610760565b811461078657600080fd5b50565b60008135905061079881610772565b92915050565b6000602082840312156107b4576107b3610531565b5b60006107c284828501610789565b91505092915050565b6107d48161053b565b82525050565b60006060820190506107ef60008301866107cb565b6107fc60208301856107cb565b61080960408301846104fd565b949350505050565b6000819050919050565b600061083661083161082c84610740565b610811565b610740565b9050919050565b60006108488261081b565b9050919050565b600061085a8261083d565b9050919050565b61086a8161084f565b82525050565b60006020820190506108856000830184610861565b92915050565b61089481610760565b82525050565b60006020820190506108af600083018461088b565b92915050565b6108be816104f1565b81146108c957600080fd5b50565b6000815190506108db816108b5565b92915050565b6000602082840312156108f7576108f6610531565b5b6000610905848285016108cc565b91505092915050565b600082825260208201905092915050565b7f557365722068617320616c726561647920726567697374657265640000000000600082015250565b6000610955601b8361090e565b91506109608261091f565b602082019050919050565b6000602082019050818103600083015261098481610948565b9050919050565b7f55736572206973206e6f74207265676973746572656400000000000000000000600082015250565b60006109c160168361090e565b91506109cc8261098b565b602082019050919050565b600060208201905081810360008301526109f0816109b4565b9050919050565b600081519050919050565b60005b83811015610a20578082015181840152602081019050610a05565b60008484015250505050565b6000610a37826109f7565b610a41818561090e565b9350610a51818560208601610a02565b610a5a816105bb565b840191505092915050565b60006020820190508181036000830152610a7f8184610a2c565b90509291505056fea2646970667358221220f384dd436b2be30d6973d6317fec997aac28b18ec7a4d7bb09322b3d61e62efb64736f6c63430008130033",
  "immutableReferences": {},
  "source": "// SPDX-License-Identifier: MIT\r\n\r\npragma solidity ^0.8.0;\r\n\r\nimport \"./Ballot.sol\";\r\n\r\ncontract Voter {\r\n    // Reference to the ballot contract\r\n    Ballot public ballot;\r\n\r\n    // Struct to store user information\r\n    struct User {\r\n        bytes32 name;\r\n        bytes32 email;\r\n        bool registered;\r\n    }\r\n\r\n    // Mapping to store user information by Ethereum address\r\n    mapping(address => User) public users;\r\n\r\n    // Constructor to set the reference to the ballot contract\r\n    constructor(address _ballot) {\r\n        ballot = Ballot(_ballot);\r\n    }\r\n\r\n    // Function to register a user\r\n    function registerUser(bytes32 _name, bytes32 _email) public {\r\n        require(!users[msg.sender].registered, \"User has already registered\");\r\n\r\n        users[msg.sender] = User(_name, _email, true);\r\n    }\r\n\r\n    // Function to cast a vote\r\n    function castVote(string memory _candidate) public {\r\n        require(users[msg.sender].registered, \"User is not registered\");\r\n        ballot.castVote(_candidate);\r\n    }\r\n\r\n    // Function to check if the voter is eligible to vote\r\n    function isEligible() public view returns (bool) {\r\n        return users[msg.sender].registered && !ballot.voters(msg.sender);\r\n    }\r\n}\r\n",
  "sourcePath": "C:\\Users\\faraa\\Documents\\GitHub\\BlockchainVotingPlatform\\voting-app\\contracts\\Voter.sol",
  "compiler": {
    "name": "solc",
    "version": "0.8.19+commit.7dd6d404.Emscripten.clang"
  },
  "schemaVersion": "3.4.13",
  "updatedAt": "2023-03-14T09:22:25.512Z",
  "networkType": "ethereum",
  "devdoc": {
    "kind": "dev",
    "methods": {},
    "version": 1
  },
  "userdoc": {
    "kind": "user",
    "methods": {},
    "version": 1
  }
}