{
  "contractName": "Ballot",
  "abi": [
    {
      "inputs": [
        {
          "internalType": "string[]",
          "name": "_candidates",
          "type": "string[]"
        }
      ],
      "stateMutability": "nonpayable",
      "type": "constructor"
    },
    {
      "anonymous": false,
      "inputs": [
        {
          "indexed": false,
          "internalType": "address",
          "name": "voter",
          "type": "address"
        },
        {
          "indexed": false,
          "internalType": "string",
          "name": "candidate",
          "type": "string"
        }
      ],
      "name": "VoteCast",
      "type": "event"
    },
    {
      "inputs": [
        {
          "internalType": "uint256",
          "name": "",
          "type": "uint256"
        }
      ],
      "name": "candidates",
      "outputs": [
        {
          "internalType": "string",
          "name": "",
          "type": "string"
        }
      ],
      "stateMutability": "view",
      "type": "function",
      "constant": true
    },
    {
      "inputs": [
        {
          "internalType": "address",
          "name": "",
          "type": "address"
        }
      ],
      "name": "voters",
      "outputs": [
        {
          "internalType": "bool",
          "name": "",
          "type": "bool"
        }
      ],
      "stateMutability": "view",
      "type": "function",
      "constant": true
    },
    {
      "inputs": [
        {
          "internalType": "string",
          "name": "_candidate",
          "type": "string"
        }
      ],
      "name": "castVote",
      "outputs": [],
      "stateMutability": "nonpayable",
      "type": "function"
    },
    {
      "inputs": [],
      "name": "getCandidates",
      "outputs": [
        {
          "internalType": "string[]",
          "name": "",
          "type": "string[]"
        }
      ],
      "stateMutability": "view",
      "type": "function",
      "constant": true
    }
  ],
  "bytecode": "0x60806040523480156200001157600080fd5b5060405162001110380380620011108339818101604052810190620000379190620003d3565b80600090805190602001906200004f92919062000057565b50506200075c565b828054828255906000526020600020908101928215620000a4579160200282015b82811115620000a357825182908162000092919062000675565b509160200191906001019062000078565b5b509050620000b39190620000b7565b5090565b5b80821115620000db5760008181620000d19190620000df565b50600101620000b8565b5090565b508054620000ed906200045e565b6000825580601f1062000101575062000122565b601f01602090049060005260206000209081019062000121919062000125565b5b50565b5b808211156200014057600081600090555060010162000126565b5090565b6000604051905090565b600080fd5b600080fd5b600080fd5b6000601f19601f8301169050919050565b7f4e487b7100000000000000000000000000000000000000000000000000000000600052604160045260246000fd5b620001a8826200015d565b810181811067ffffffffffffffff82111715620001ca57620001c96200016e565b5b80604052505050565b6000620001df62000144565b9050620001ed82826200019d565b919050565b600067ffffffffffffffff82111562000210576200020f6200016e565b5b602082029050602081019050919050565b600080fd5b600080fd5b600067ffffffffffffffff8211156200024957620002486200016e565b5b62000254826200015d565b9050602081019050919050565b60005b838110156200028157808201518184015260208101905062000264565b60008484015250505050565b6000620002a46200029e846200022b565b620001d3565b905082815260208101848484011115620002c357620002c262000226565b5b620002d084828562000261565b509392505050565b600082601f830112620002f057620002ef62000158565b5b8151620003028482602086016200028d565b91505092915050565b6000620003226200031c84620001f2565b620001d3565b9050808382526020820190506020840283018581111562000348576200034762000221565b5b835b818110156200039657805167ffffffffffffffff81111562000371576200037062000158565b5b808601620003808982620002d8565b855260208501945050506020810190506200034a565b5050509392505050565b600082601f830112620003b857620003b762000158565b5b8151620003ca8482602086016200030b565b91505092915050565b600060208284031215620003ec57620003eb6200014e565b5b600082015167ffffffffffffffff8111156200040d576200040c62000153565b5b6200041b84828501620003a0565b91505092915050565b600081519050919050565b7f4e487b7100000000000000000000000000000000000000000000000000000000600052602260045260246000fd5b600060028204905060018216806200047757607f821691505b6020821081036200048d576200048c6200042f565b5b50919050565b60008190508160005260206000209050919050565b60006020601f8301049050919050565b60008160020a8302905092915050565b600060088302620004fa7fffffffffffffffffffffffffffffffffffffffffffffffffffffffffffffffff82620004b8565b620005068683620004b8565b95508019841693508086168417925050509392505050565b6000819050919050565b6000819050919050565b6000620005536200054d62000547846200051e565b62000528565b6200051e565b9050919050565b6000819050919050565b6200056f8362000532565b620005876200057e826200055a565b848454620004c8565b825550505050565b600090565b6200059e6200058f565b620005ab81848462000564565b505050565b5b81811015620005d357620005c760008262000594565b600181019050620005b1565b5050565b601f8211156200062257620005ec8162000493565b620005f784620004a8565b8101602085101562000607578190505b6200061f6200061685620004a8565b830182620005b0565b50505b505050565b60008160020a8304905092915050565b60006200064a6000198460080262000627565b1980831691505092915050565b600062000665838362000637565b9150826002028217905092915050565b620006808262000424565b67ffffffffffffffff8111156200069c576200069b6200016e565b5b620006a882546200045e565b620006b5828285620005d7565b600060209050601f831160018114620006ed5760008415620006d8578287015190505b620006e4858262000657565b86555062000754565b601f198416620006fd8662000493565b60005b82811015620007275784890151825560018201915060208501945060208101905062000700565b8683101562000747578489015162000743601f89168262000637565b8355505b6001600288020188555050505b505050505050565b6109a4806200076c6000396000f3fe608060405234801561001057600080fd5b5060043610610069576000357c01000000000000000000000000000000000000000000000000000000009004806306a49fce1461006e5780633477ee2e1461008c5780639cc2d993146100bc578063a3ec138d146100d8575b600080fd5b610076610108565b604051610083919061051f565b60405180910390f35b6100a660048036038101906100a1919061058b565b6101e1565b6040516100b39190610602565b60405180910390f35b6100d660048036038101906100d19190610759565b61028d565b005b6100f260048036038101906100ed9190610800565b6103ad565b6040516100ff9190610848565b60405180910390f35b60606000805480602002602001604051908101604052809291908181526020016000905b828210156101d857838290600052602060002001805461014b90610892565b80601f016020809104026020016040519081016040528092919081815260200182805461017790610892565b80156101c45780601f10610199576101008083540402835291602001916101c4565b820191906000526020600020905b8154815290600101906020018083116101a757829003601f168201915b50505050508152602001906001019061012c565b50505050905090565b600081815481106101f157600080fd5b90600052602060002001600091509050805461020c90610892565b80601f016020809104026020016040519081016040528092919081815260200182805461023890610892565b80156102855780601f1061025a57610100808354040283529160200191610285565b820191906000526020600020905b81548152906001019060200180831161026857829003601f168201915b505050505081565b600160003373ffffffffffffffffffffffffffffffffffffffff1673ffffffffffffffffffffffffffffffffffffffff16815260200190815260200160002060009054906101000a900460ff161561031a576040517f08c379a00000000000000000000000000000000000000000000000000000000081526004016103119061090f565b60405180910390fd5b60018060003373ffffffffffffffffffffffffffffffffffffffff1673ffffffffffffffffffffffffffffffffffffffff16815260200190815260200160002060006101000a81548160ff0219169083151502179055507f866dc605853954ffa419910eb05d67f430efec2e7db7ce135bf55565667a4ab433826040516103a292919061093e565b60405180910390a150565b60016020528060005260406000206000915054906101000a900460ff1681565b600081519050919050565b600082825260208201905092915050565b6000819050602082019050919050565b600081519050919050565b600082825260208201905092915050565b60005b83811015610433578082015181840152602081019050610418565b60008484015250505050565b6000601f19601f8301169050919050565b600061045b826103f9565b6104658185610404565b9350610475818560208601610415565b61047e8161043f565b840191505092915050565b60006104958383610450565b905092915050565b6000602082019050919050565b60006104b5826103cd565b6104bf81856103d8565b9350836020820285016104d1856103e9565b8060005b8581101561050d57848403895281516104ee8582610489565b94506104f98361049d565b925060208a019950506001810190506104d5565b50829750879550505050505092915050565b6000602082019050818103600083015261053981846104aa565b905092915050565b6000604051905090565b600080fd5b600080fd5b6000819050919050565b61056881610555565b811461057357600080fd5b50565b6000813590506105858161055f565b92915050565b6000602082840312156105a1576105a061054b565b5b60006105af84828501610576565b91505092915050565b600082825260208201905092915050565b60006105d4826103f9565b6105de81856105b8565b93506105ee818560208601610415565b6105f78161043f565b840191505092915050565b6000602082019050818103600083015261061c81846105c9565b905092915050565b600080fd5b600080fd5b7f4e487b7100000000000000000000000000000000000000000000000000000000600052604160045260246000fd5b6106668261043f565b810181811067ffffffffffffffff821117156106855761068461062e565b5b80604052505050565b6000610698610541565b90506106a4828261065d565b919050565b600067ffffffffffffffff8211156106c4576106c361062e565b5b6106cd8261043f565b9050602081019050919050565b82818337600083830152505050565b60006106fc6106f7846106a9565b61068e565b90508281526020810184848401111561071857610717610629565b5b6107238482856106da565b509392505050565b600082601f8301126107405761073f610624565b5b81356107508482602086016106e9565b91505092915050565b60006020828403121561076f5761076e61054b565b5b600082013567ffffffffffffffff81111561078d5761078c610550565b5b6107998482850161072b565b91505092915050565b600073ffffffffffffffffffffffffffffffffffffffff82169050919050565b60006107cd826107a2565b9050919050565b6107dd816107c2565b81146107e857600080fd5b50565b6000813590506107fa816107d4565b92915050565b6000602082840312156108165761081561054b565b5b6000610824848285016107eb565b91505092915050565b60008115159050919050565b6108428161082d565b82525050565b600060208201905061085d6000830184610839565b92915050565b7f4e487b7100000000000000000000000000000000000000000000000000000000600052602260045260246000fd5b600060028204905060018216806108aa57607f821691505b6020821081036108bd576108bc610863565b5b50919050565b7f596f75206861766520616c7265616479206361737420796f757220766f746500600082015250565b60006108f9601f836105b8565b9150610904826108c3565b602082019050919050565b60006020820190508181036000830152610928816108ec565b9050919050565b610938816107c2565b82525050565b6000604082019050610953600083018561092f565b818103602083015261096581846105c9565b9050939250505056fea2646970667358221220a35062df47432e4e67ed4e4be9e1b1514bd6394a4164fb26407ed37bee9d98e164736f6c63430008130033",
  "immutableReferences": {},
  "source": "// SPDX-License-Identifier: MIT\r\n\r\npragma solidity ^0.8.0;\r\n\r\ncontract Ballot {\r\n    // List of candidates\r\n    string[] public candidates;\r\n\r\n    // List of voters who have already cast their votes\r\n    mapping(address => bool) public voters;\r\n\r\n    // Event to notify when a vote is cast\r\n    event VoteCast(address voter, string candidate);\r\n\r\n    // Constructor to set the candidate identity\r\n    constructor(string[] memory _candidates) {\r\n        candidates = _candidates;\r\n    }\r\n\r\n    // Function to cast a vote\r\n    function castVote(string memory _candidate) public {\r\n        require(!voters[msg.sender], \"You have already cast your vote\"); \r\n        voters[msg.sender] = true;\r\n\r\n        emit VoteCast(msg.sender, _candidate);\r\n    }\r\n\r\n    // Function to get the list of candidates\r\n    function getCandidates() public view returns (string[] memory) {\r\n        return candidates;\r\n    }\r\n}",
  "sourcePath": "C:\\Users\\faraa\\Documents\\GitHub\\BlockchainVotingPlatform\\voting-app\\contracts\\Ballot.sol",
  "compiler": {
    "name": "solc",
    "version": "0.8.19+commit.7dd6d404.Emscripten.clang"
  },
  "schemaVersion": "3.4.13",
  "updatedAt": "2023-03-26T07:21:04.270Z",
  "networkType": "ethereum",
  "devdoc": {
    "kind": "dev",
    "methods": {},
    "version": 1
  },
  "userdoc": {
    "kind": "user",
    "methods": {},
    "version": 1
  }
}