{
  "contractName": "Ballot",
  "abi": [
    {
      "inputs": [
        {
          "internalType": "string[]",
          "name": "_candidates",
          "type": "string[]"
        },
        {
          "internalType": "uint256",
          "name": "_startTime",
          "type": "uint256"
        },
        {
          "internalType": "uint256",
          "name": "_endTime",
          "type": "uint256"
        },
        {
          "internalType": "uint256",
          "name": "_maxVotesPerVoter",
          "type": "uint256"
        }
      ],
      "stateMutability": "nonpayable",
      "type": "constructor"
    },
    {
      "anonymous": false,
      "inputs": [
        {
          "indexed": false,
          "internalType": "address",
          "name": "voter",
          "type": "address"
        },
        {
          "indexed": false,
          "internalType": "string",
          "name": "candidate",
          "type": "string"
        }
      ],
      "name": "VoteCast",
      "type": "event"
    },
    {
      "inputs": [
        {
          "internalType": "uint256",
          "name": "",
          "type": "uint256"
        }
      ],
      "name": "candidates",
      "outputs": [
        {
          "internalType": "string",
          "name": "",
          "type": "string"
        }
      ],
      "stateMutability": "view",
      "type": "function",
      "constant": true
    },
    {
      "inputs": [],
      "name": "endTime",
      "outputs": [
        {
          "internalType": "uint256",
          "name": "",
          "type": "uint256"
        }
      ],
      "stateMutability": "view",
      "type": "function",
      "constant": true
    },
    {
      "inputs": [],
      "name": "maxVotesPerVoter",
      "outputs": [
        {
          "internalType": "uint256",
          "name": "",
          "type": "uint256"
        }
      ],
      "stateMutability": "view",
      "type": "function",
      "constant": true
    },
    {
      "inputs": [],
      "name": "startTime",
      "outputs": [
        {
          "internalType": "uint256",
          "name": "",
          "type": "uint256"
        }
      ],
      "stateMutability": "view",
      "type": "function",
      "constant": true
    },
    {
      "inputs": [
        {
          "internalType": "address",
          "name": "",
          "type": "address"
        }
      ],
      "name": "voters",
      "outputs": [
        {
          "internalType": "bool",
          "name": "",
          "type": "bool"
        }
      ],
      "stateMutability": "view",
      "type": "function",
      "constant": true
    },
    {
      "inputs": [
        {
          "internalType": "string",
          "name": "",
          "type": "string"
        }
      ],
      "name": "votesReceived",
      "outputs": [
        {
          "internalType": "uint256",
          "name": "",
          "type": "uint256"
        }
      ],
      "stateMutability": "view",
      "type": "function",
      "constant": true
    },
    {
      "inputs": [
        {
          "internalType": "string",
          "name": "_candidate",
          "type": "string"
        }
      ],
      "name": "castVote",
      "outputs": [],
      "stateMutability": "nonpayable",
      "type": "function"
    },
    {
      "inputs": [],
      "name": "getTotalVotes",
      "outputs": [
        {
          "internalType": "uint256",
          "name": "",
          "type": "uint256"
        }
      ],
      "stateMutability": "view",
      "type": "function",
      "constant": true
    }
  ],
  "bytecode": "0x60806040523480156200001157600080fd5b50604051620015a4380380620015a4833981810160405281019062000037919062000426565b83600090805190602001906200004f9291906200006f565b5082600381905550816004819055508060058190555050505050620007e5565b828054828255906000526020600020908101928215620000bc579160200282015b82811115620000bb578251829081620000aa9190620006fe565b509160200191906001019062000090565b5b509050620000cb9190620000cf565b5090565b5b80821115620000f35760008181620000e99190620000f7565b50600101620000d0565b5090565b5080546200010590620004f1565b6000825580601f106200011957506200013a565b601f0160209004906000526020600020908101906200013991906200013d565b5b50565b5b80821115620001585760008160009055506001016200013e565b5090565b6000604051905090565b600080fd5b600080fd5b600080fd5b6000601f19601f8301169050919050565b7f4e487b7100000000000000000000000000000000000000000000000000000000600052604160045260246000fd5b620001c08262000175565b810181811067ffffffffffffffff82111715620001e257620001e162000186565b5b80604052505050565b6000620001f76200015c565b9050620002058282620001b5565b919050565b600067ffffffffffffffff82111562000228576200022762000186565b5b602082029050602081019050919050565b600080fd5b600080fd5b600067ffffffffffffffff82111562000261576200026062000186565b5b6200026c8262000175565b9050602081019050919050565b60005b83811015620002995780820151818401526020810190506200027c565b60008484015250505050565b6000620002bc620002b68462000243565b620001eb565b905082815260208101848484011115620002db57620002da6200023e565b5b620002e884828562000279565b509392505050565b600082601f83011262000308576200030762000170565b5b81516200031a848260208601620002a5565b91505092915050565b60006200033a62000334846200020a565b620001eb565b9050808382526020820190506020840283018581111562000360576200035f62000239565b5b835b81811015620003ae57805167ffffffffffffffff81111562000389576200038862000170565b5b808601620003988982620002f0565b8552602085019450505060208101905062000362565b5050509392505050565b600082601f830112620003d057620003cf62000170565b5b8151620003e284826020860162000323565b91505092915050565b6000819050919050565b6200040081620003eb565b81146200040c57600080fd5b50565b6000815190506200042081620003f5565b92915050565b6000806000806080858703121562000443576200044262000166565b5b600085015167ffffffffffffffff8111156200046457620004636200016b565b5b6200047287828801620003b8565b945050602062000485878288016200040f565b935050604062000498878288016200040f565b9250506060620004ab878288016200040f565b91505092959194509250565b600081519050919050565b7f4e487b7100000000000000000000000000000000000000000000000000000000600052602260045260246000fd5b600060028204905060018216806200050a57607f821691505b60208210810362000520576200051f620004c2565b5b50919050565b60008190508160005260206000209050919050565b60006020601f8301049050919050565b60008160020a8302905092915050565b6000600883026200058d7fffffffffffffffffffffffffffffffffffffffffffffffffffffffffffffffff826200054b565b6200059986836200054b565b95508019841693508086168417925050509392505050565b6000819050919050565b6000620005dc620005d6620005d084620003eb565b620005b1565b620003eb565b9050919050565b6000819050919050565b620005f883620005bb565b620006106200060782620005e3565b8484546200055b565b825550505050565b600090565b6200062762000618565b62000634818484620005ed565b505050565b5b818110156200065c57620006506000826200061d565b6001810190506200063a565b5050565b601f821115620006ab57620006758162000526565b62000680846200053b565b8101602085101562000690578190505b620006a86200069f856200053b565b83018262000639565b50505b505050565b60008160020a8304905092915050565b6000620006d360001984600802620006b0565b1980831691505092915050565b6000620006ee8383620006c0565b9150826002028217905092915050565b6200070982620004b7565b67ffffffffffffffff81111562000725576200072462000186565b5b620007318254620004f1565b6200073e82828562000660565b600060209050601f83116001811462000776576000841562000761578287015190505b6200076d8582620006e0565b865550620007dd565b601f198416620007868662000526565b60005b82811015620007b05784890151825560018201915060208501945060208101905062000789565b86831015620007d05784890151620007cc601f891682620006c0565b8355505b6001600288020188555050505b505050505050565b610daf80620007f56000396000f3fe608060405234801561001057600080fd5b50600436106100a5576000357c0100000000000000000000000000000000000000000000000000000000900480639a0e7d66116100785780639a0e7d66146101465780639cc2d99314610164578063a3614fb814610180578063a3ec138d1461019e576100a5565b80633197cbb6146100aa5780633477ee2e146100c857806378e97925146100f85780638d4b44d914610116575b600080fd5b6100b26101ce565b6040516100bf91906105af565b60405180910390f35b6100e260048036038101906100dd919061060a565b6101d4565b6040516100ef91906106c7565b60405180910390f35b610100610280565b60405161010d91906105af565b60405180910390f35b610130600480360381019061012b919061081e565b610286565b60405161013d91906105af565b60405180910390f35b61014e6102b4565b60405161015b91906105af565b60405180910390f35b61017e6004803603810190610179919061081e565b61032f565b005b610188610570565b60405161019591906105af565b60405180910390f35b6101b860048036038101906101b391906108c5565b610576565b6040516101c5919061090d565b60405180910390f35b60045481565b600081815481106101e457600080fd5b9060005260206000200160009150905080546101ff90610957565b80601f016020809104026020016040519081016040528092919081815260200182805461022b90610957565b80156102785780601f1061024d57610100808354040283529160200191610278565b820191906000526020600020905b81548152906001019060200180831161025b57829003601f168201915b505050505081565b60035481565b6001818051602081018201805184825260208301602085012081835280955050505050506000915090505481565b6000806000905060005b600080549050811015610327576001600082815481106102e1576102e0610988565b5b906000526020600020016040516102f89190610a5a565b908152602001604051809103902054826103129190610aa0565b9150808061031f90610ad4565b9150506102be565b508091505090565b600354421015610374576040517f08c379a000000000000000000000000000000000000000000000000000000000815260040161036b90610b68565b60405180910390fd5b6004544211156103b9576040517f08c379a00000000000000000000000000000000000000000000000000000000081526004016103b090610bd4565b60405180910390fd5b600260003373ffffffffffffffffffffffffffffffffffffffff1673ffffffffffffffffffffffffffffffffffffffff16815260200190815260200160002060009054906101000a900460ff1615610446576040517f08c379a000000000000000000000000000000000000000000000000000000000815260040161043d90610c40565b60405180910390fd5b6005546001826040516104599190610c91565b908152602001604051809103902054106104a8576040517f08c379a000000000000000000000000000000000000000000000000000000000815260040161049f90610d1a565b60405180910390fd5b6001816040516104b89190610c91565b908152602001604051809103902060008154809291906104d790610ad4565b91905055506001600260003373ffffffffffffffffffffffffffffffffffffffff1673ffffffffffffffffffffffffffffffffffffffff16815260200190815260200160002060006101000a81548160ff0219169083151502179055507f866dc605853954ffa419910eb05d67f430efec2e7db7ce135bf55565667a4ab43382604051610565929190610d49565b60405180910390a150565b60055481565b60026020528060005260406000206000915054906101000a900460ff1681565b6000819050919050565b6105a981610596565b82525050565b60006020820190506105c460008301846105a0565b92915050565b6000604051905090565b600080fd5b600080fd5b6105e781610596565b81146105f257600080fd5b50565b600081359050610604816105de565b92915050565b6000602082840312156106205761061f6105d4565b5b600061062e848285016105f5565b91505092915050565b600081519050919050565b600082825260208201905092915050565b60005b83811015610671578082015181840152602081019050610656565b60008484015250505050565b6000601f19601f8301169050919050565b600061069982610637565b6106a38185610642565b93506106b3818560208601610653565b6106bc8161067d565b840191505092915050565b600060208201905081810360008301526106e1818461068e565b905092915050565b600080fd5b600080fd5b7f4e487b7100000000000000000000000000000000000000000000000000000000600052604160045260246000fd5b61072b8261067d565b810181811067ffffffffffffffff8211171561074a576107496106f3565b5b80604052505050565b600061075d6105ca565b90506107698282610722565b919050565b600067ffffffffffffffff821115610789576107886106f3565b5b6107928261067d565b9050602081019050919050565b82818337600083830152505050565b60006107c16107bc8461076e565b610753565b9050828152602081018484840111156107dd576107dc6106ee565b5b6107e884828561079f565b509392505050565b600082601f830112610805576108046106e9565b5b81356108158482602086016107ae565b91505092915050565b600060208284031215610834576108336105d4565b5b600082013567ffffffffffffffff811115610852576108516105d9565b5b61085e848285016107f0565b91505092915050565b600073ffffffffffffffffffffffffffffffffffffffff82169050919050565b600061089282610867565b9050919050565b6108a281610887565b81146108ad57600080fd5b50565b6000813590506108bf81610899565b92915050565b6000602082840312156108db576108da6105d4565b5b60006108e9848285016108b0565b91505092915050565b60008115159050919050565b610907816108f2565b82525050565b600060208201905061092260008301846108fe565b92915050565b7f4e487b7100000000000000000000000000000000000000000000000000000000600052602260045260246000fd5b6000600282049050600182168061096f57607f821691505b60208210810361098257610981610928565b5b50919050565b7f4e487b7100000000000000000000000000000000000000000000000000000000600052603260045260246000fd5b600081905092915050565b60008190508160005260206000209050919050565b600081546109e481610957565b6109ee81866109b7565b94506001821660008114610a095760018114610a1e57610a51565b60ff1983168652811515820286019350610a51565b610a27856109c2565b60005b83811015610a4957815481890152600182019150602081019050610a2a565b838801955050505b50505092915050565b6000610a6682846109d7565b915081905092915050565b7f4e487b7100000000000000000000000000000000000000000000000000000000600052601160045260246000fd5b6000610aab82610596565b9150610ab683610596565b9250828201905080821115610ace57610acd610a71565b5b92915050565b6000610adf82610596565b91507fffffffffffffffffffffffffffffffffffffffffffffffffffffffffffffffff8203610b1157610b10610a71565b5b600182019050919050565b7f456c656374696f6e20686173206e6f7420737461727465642079657400000000600082015250565b6000610b52601c83610642565b9150610b5d82610b1c565b602082019050919050565b60006020820190508181036000830152610b8181610b45565b9050919050565b7f456c656374696f6e2068617320656e6465640000000000000000000000000000600082015250565b6000610bbe601283610642565b9150610bc982610b88565b602082019050919050565b60006020820190508181036000830152610bed81610bb1565b9050919050565b7f596f75206861766520616c7265616479206361737420796f757220766f746500600082015250565b6000610c2a601f83610642565b9150610c3582610bf4565b602082019050919050565b60006020820190508181036000830152610c5981610c1d565b9050919050565b6000610c6b82610637565b610c7581856109b7565b9350610c85818560208601610653565b80840191505092915050565b6000610c9d8284610c60565b915081905092915050565b7f546869732063616e6469646174652068617320616c726561647920726561636860008201527f656420746865206d6178696d756d206e756d626572206f6620766f7465730000602082015250565b6000610d04603e83610642565b9150610d0f82610ca8565b604082019050919050565b60006020820190508181036000830152610d3381610cf7565b9050919050565b610d4381610887565b82525050565b6000604082019050610d5e6000830185610d3a565b8181036020830152610d70818461068e565b9050939250505056fea264697066735822122040301badae31e4badeb3d489a1652f4a7f7299190955e945a3fabcf3690690e764736f6c63430008130033",
  "immutableReferences": {},
  "source": "// SPDX-License-Identifier: MIT\r\n\r\npragma solidity ^0.8.0;\r\n\r\ncontract Ballot {\r\n    // List of candidates\r\n    string[] public candidates;\r\n\r\n    // List of votes received by each candidate\r\n    mapping(string => uint256) public votesReceived;\r\n\r\n    // List of voters who have already cast their votes\r\n    mapping(address => bool) public voters;\r\n\r\n    // Election start and end time\r\n    uint256 public startTime;\r\n    uint256 public endTime;\r\n\r\n    // Maximum number of votes per voter\r\n    uint256 public maxVotesPerVoter;\r\n\r\n    // Event to notify when a vote is cast\r\n    event VoteCast(address voter, string candidate);\r\n\r\n    // Constructor to set the election rules\r\n    constructor(string[] memory _candidates, uint256 _startTime, uint256 _endTime, uint256 _maxVotesPerVoter) {\r\n        candidates = _candidates;\r\n        startTime = _startTime;\r\n        endTime = _endTime;\r\n        maxVotesPerVoter = _maxVotesPerVoter;\r\n    }\r\n\r\n    // Function to cast a vote\r\n    function castVote(string memory _candidate) public {\r\n        require(block.timestamp >= startTime, \"Election has not started yet\");\r\n        require(block.timestamp <= endTime, \"Election has ended\");\r\n        require(!voters[msg.sender], \"You have already cast your vote\");\r\n        require(votesReceived[_candidate] < maxVotesPerVoter, \"This candidate has already reached the maximum number of votes\");\r\n\r\n        votesReceived[_candidate]++;\r\n        voters[msg.sender] = true;\r\n\r\n        emit VoteCast(msg.sender, _candidate);\r\n    }\r\n\r\n    // Function to get the total number of votes\r\n    function getTotalVotes() public view returns (uint256) {\r\n        uint256 totalVotes = 0;\r\n\r\n        for (uint256 i = 0; i < candidates.length; i++) {\r\n            totalVotes += votesReceived[candidates[i]];\r\n        }\r\n\r\n        return totalVotes;\r\n    }\r\n}\r\n",
  "sourcePath": "C:\\Users\\faraa\\Documents\\GitHub\\BlockchainVotingPlatform\\voting-app\\contracts\\Ballot.sol",
  "compiler": {
    "name": "solc",
    "version": "0.8.19+commit.7dd6d404.Emscripten.clang"
  },
  "schemaVersion": "3.4.13",
  "updatedAt": "2023-03-23T05:43:17.263Z",
  "networkType": "ethereum",
  "devdoc": {
    "kind": "dev",
    "methods": {},
    "version": 1
  },
  "userdoc": {
    "kind": "user",
    "methods": {},
    "version": 1
  }
}