{
  "contractName": "Ballot",
  "abi": [
    {
      "inputs": [
        {
          "internalType": "string[]",
          "name": "_candidates",
          "type": "string[]"
        },
        {
          "internalType": "uint256",
          "name": "_startTime",
          "type": "uint256"
        },
        {
          "internalType": "uint256",
          "name": "_endTime",
          "type": "uint256"
        },
        {
          "internalType": "uint256",
          "name": "_maxVotesPerVoter",
          "type": "uint256"
        }
      ],
      "stateMutability": "nonpayable",
      "type": "constructor"
    },
    {
      "anonymous": false,
      "inputs": [
        {
          "indexed": false,
          "internalType": "address",
          "name": "voter",
          "type": "address"
        },
        {
          "indexed": false,
          "internalType": "string",
          "name": "candidate",
          "type": "string"
        }
      ],
      "name": "VoteCast",
      "type": "event"
    },
    {
      "inputs": [
        {
          "internalType": "uint256",
          "name": "",
          "type": "uint256"
        }
      ],
      "name": "candidates",
      "outputs": [
        {
          "internalType": "string",
          "name": "",
          "type": "string"
        }
      ],
      "stateMutability": "view",
      "type": "function",
      "constant": true
    },
    {
      "inputs": [],
      "name": "endTime",
      "outputs": [
        {
          "internalType": "uint256",
          "name": "",
          "type": "uint256"
        }
      ],
      "stateMutability": "view",
      "type": "function",
      "constant": true
    },
    {
      "inputs": [],
      "name": "maxVotesPerVoter",
      "outputs": [
        {
          "internalType": "uint256",
          "name": "",
          "type": "uint256"
        }
      ],
      "stateMutability": "view",
      "type": "function",
      "constant": true
    },
    {
      "inputs": [],
      "name": "startTime",
      "outputs": [
        {
          "internalType": "uint256",
          "name": "",
          "type": "uint256"
        }
      ],
      "stateMutability": "view",
      "type": "function",
      "constant": true
    },
    {
      "inputs": [
        {
          "internalType": "address",
          "name": "",
          "type": "address"
        }
      ],
      "name": "voters",
      "outputs": [
        {
          "internalType": "bool",
          "name": "",
          "type": "bool"
        }
      ],
      "stateMutability": "view",
      "type": "function",
      "constant": true
    },
    {
      "inputs": [
        {
          "internalType": "string",
          "name": "",
          "type": "string"
        }
      ],
      "name": "votesReceived",
      "outputs": [
        {
          "internalType": "uint256",
          "name": "",
          "type": "uint256"
        }
      ],
      "stateMutability": "view",
      "type": "function",
      "constant": true
    },
    {
      "inputs": [
        {
          "internalType": "string",
          "name": "_candidate",
          "type": "string"
        }
      ],
      "name": "castVote",
      "outputs": [],
      "stateMutability": "nonpayable",
      "type": "function"
    },
    {
      "inputs": [],
      "name": "getTotalVotes",
      "outputs": [
        {
          "internalType": "uint256",
          "name": "",
          "type": "uint256"
        }
      ],
      "stateMutability": "view",
      "type": "function",
      "constant": true
    },
    {
      "inputs": [],
      "name": "getCandidates",
      "outputs": [
        {
          "internalType": "string[]",
          "name": "",
          "type": "string[]"
        }
      ],
      "stateMutability": "view",
      "type": "function",
      "constant": true
    }
  ],
  "bytecode": "0x60806040523480156200001157600080fd5b50604051620017d4380380620017d4833981810160405281019062000037919062000426565b83600090805190602001906200004f9291906200006f565b5082600381905550816004819055508060058190555050505050620007e5565b828054828255906000526020600020908101928215620000bc579160200282015b82811115620000bb578251829081620000aa9190620006fe565b509160200191906001019062000090565b5b509050620000cb9190620000cf565b5090565b5b80821115620000f35760008181620000e99190620000f7565b50600101620000d0565b5090565b5080546200010590620004f1565b6000825580601f106200011957506200013a565b601f0160209004906000526020600020908101906200013991906200013d565b5b50565b5b80821115620001585760008160009055506001016200013e565b5090565b6000604051905090565b600080fd5b600080fd5b600080fd5b6000601f19601f8301169050919050565b7f4e487b7100000000000000000000000000000000000000000000000000000000600052604160045260246000fd5b620001c08262000175565b810181811067ffffffffffffffff82111715620001e257620001e162000186565b5b80604052505050565b6000620001f76200015c565b9050620002058282620001b5565b919050565b600067ffffffffffffffff82111562000228576200022762000186565b5b602082029050602081019050919050565b600080fd5b600080fd5b600067ffffffffffffffff82111562000261576200026062000186565b5b6200026c8262000175565b9050602081019050919050565b60005b83811015620002995780820151818401526020810190506200027c565b60008484015250505050565b6000620002bc620002b68462000243565b620001eb565b905082815260208101848484011115620002db57620002da6200023e565b5b620002e884828562000279565b509392505050565b600082601f83011262000308576200030762000170565b5b81516200031a848260208601620002a5565b91505092915050565b60006200033a62000334846200020a565b620001eb565b9050808382526020820190506020840283018581111562000360576200035f62000239565b5b835b81811015620003ae57805167ffffffffffffffff81111562000389576200038862000170565b5b808601620003988982620002f0565b8552602085019450505060208101905062000362565b5050509392505050565b600082601f830112620003d057620003cf62000170565b5b8151620003e284826020860162000323565b91505092915050565b6000819050919050565b6200040081620003eb565b81146200040c57600080fd5b50565b6000815190506200042081620003f5565b92915050565b6000806000806080858703121562000443576200044262000166565b5b600085015167ffffffffffffffff8111156200046457620004636200016b565b5b6200047287828801620003b8565b945050602062000485878288016200040f565b935050604062000498878288016200040f565b9250506060620004ab878288016200040f565b91505092959194509250565b600081519050919050565b7f4e487b7100000000000000000000000000000000000000000000000000000000600052602260045260246000fd5b600060028204905060018216806200050a57607f821691505b60208210810362000520576200051f620004c2565b5b50919050565b60008190508160005260206000209050919050565b60006020601f8301049050919050565b60008160020a8302905092915050565b6000600883026200058d7fffffffffffffffffffffffffffffffffffffffffffffffffffffffffffffffff826200054b565b6200059986836200054b565b95508019841693508086168417925050509392505050565b6000819050919050565b6000620005dc620005d6620005d084620003eb565b620005b1565b620003eb565b9050919050565b6000819050919050565b620005f883620005bb565b620006106200060782620005e3565b8484546200055b565b825550505050565b600090565b6200062762000618565b62000634818484620005ed565b505050565b5b818110156200065c57620006506000826200061d565b6001810190506200063a565b5050565b601f821115620006ab57620006758162000526565b62000680846200053b565b8101602085101562000690578190505b620006a86200069f856200053b565b83018262000639565b50505b505050565b60008160020a8304905092915050565b6000620006d360001984600802620006b0565b1980831691505092915050565b6000620006ee8383620006c0565b9150826002028217905092915050565b6200070982620004b7565b67ffffffffffffffff81111562000725576200072462000186565b5b620007318254620004f1565b6200073e82828562000660565b600060209050601f83116001811462000776576000841562000761578287015190505b6200076d8582620006e0565b865550620007dd565b601f198416620007868662000526565b60005b82811015620007b05784890151825560018201915060208501945060208101905062000789565b86831015620007d05784890151620007cc601f891682620006c0565b8355505b6001600288020188555050505b505050505050565b610fdf80620007f56000396000f3fe608060405234801561001057600080fd5b50600436106100b0576000357c0100000000000000000000000000000000000000000000000000000000900480638d4b44d9116100835780638d4b44d91461013f5780639a0e7d661461016f5780639cc2d9931461018d578063a3614fb8146101a9578063a3ec138d146101c7576100b0565b806306a49fce146100b55780633197cbb6146100d35780633477ee2e146100f157806378e9792514610121575b600080fd5b6100bd6101f7565b6040516100ca91906107ea565b60405180910390f35b6100db6102d0565b6040516100e89190610825565b60405180910390f35b61010b60048036038101906101069190610880565b6102d6565b60405161011891906108f7565b60405180910390f35b610129610382565b6040516101369190610825565b60405180910390f35b61015960048036038101906101549190610a4e565b610388565b6040516101669190610825565b60405180910390f35b6101776103b6565b6040516101849190610825565b60405180910390f35b6101a760048036038101906101a29190610a4e565b610431565b005b6101b1610672565b6040516101be9190610825565b60405180910390f35b6101e160048036038101906101dc9190610af5565b610678565b6040516101ee9190610b3d565b60405180910390f35b60606000805480602002602001604051908101604052809291908181526020016000905b828210156102c757838290600052602060002001805461023a90610b87565b80601f016020809104026020016040519081016040528092919081815260200182805461026690610b87565b80156102b35780601f10610288576101008083540402835291602001916102b3565b820191906000526020600020905b81548152906001019060200180831161029657829003601f168201915b50505050508152602001906001019061021b565b50505050905090565b60045481565b600081815481106102e657600080fd5b90600052602060002001600091509050805461030190610b87565b80601f016020809104026020016040519081016040528092919081815260200182805461032d90610b87565b801561037a5780601f1061034f5761010080835404028352916020019161037a565b820191906000526020600020905b81548152906001019060200180831161035d57829003601f168201915b505050505081565b60035481565b6001818051602081018201805184825260208301602085012081835280955050505050506000915090505481565b6000806000905060005b600080549050811015610429576001600082815481106103e3576103e2610bb8565b5b906000526020600020016040516103fa9190610c8a565b908152602001604051809103902054826104149190610cd0565b9150808061042190610d04565b9150506103c0565b508091505090565b600354421015610476576040517f08c379a000000000000000000000000000000000000000000000000000000000815260040161046d90610d98565b60405180910390fd5b6004544211156104bb576040517f08c379a00000000000000000000000000000000000000000000000000000000081526004016104b290610e04565b60405180910390fd5b600260003373ffffffffffffffffffffffffffffffffffffffff1673ffffffffffffffffffffffffffffffffffffffff16815260200190815260200160002060009054906101000a900460ff1615610548576040517f08c379a000000000000000000000000000000000000000000000000000000000815260040161053f90610e70565b60405180910390fd5b60055460018260405161055b9190610ec1565b908152602001604051809103902054106105aa576040517f08c379a00000000000000000000000000000000000000000000000000000000081526004016105a190610f4a565b60405180910390fd5b6001816040516105ba9190610ec1565b908152602001604051809103902060008154809291906105d990610d04565b91905055506001600260003373ffffffffffffffffffffffffffffffffffffffff1673ffffffffffffffffffffffffffffffffffffffff16815260200190815260200160002060006101000a81548160ff0219169083151502179055507f866dc605853954ffa419910eb05d67f430efec2e7db7ce135bf55565667a4ab43382604051610667929190610f79565b60405180910390a150565b60055481565b60026020528060005260406000206000915054906101000a900460ff1681565b600081519050919050565b600082825260208201905092915050565b6000819050602082019050919050565b600081519050919050565b600082825260208201905092915050565b60005b838110156106fe5780820151818401526020810190506106e3565b60008484015250505050565b6000601f19601f8301169050919050565b6000610726826106c4565b61073081856106cf565b93506107408185602086016106e0565b6107498161070a565b840191505092915050565b6000610760838361071b565b905092915050565b6000602082019050919050565b600061078082610698565b61078a81856106a3565b93508360208202850161079c856106b4565b8060005b858110156107d857848403895281516107b98582610754565b94506107c483610768565b925060208a019950506001810190506107a0565b50829750879550505050505092915050565b600060208201905081810360008301526108048184610775565b905092915050565b6000819050919050565b61081f8161080c565b82525050565b600060208201905061083a6000830184610816565b92915050565b6000604051905090565b600080fd5b600080fd5b61085d8161080c565b811461086857600080fd5b50565b60008135905061087a81610854565b92915050565b6000602082840312156108965761089561084a565b5b60006108a48482850161086b565b91505092915050565b600082825260208201905092915050565b60006108c9826106c4565b6108d381856108ad565b93506108e38185602086016106e0565b6108ec8161070a565b840191505092915050565b6000602082019050818103600083015261091181846108be565b905092915050565b600080fd5b600080fd5b7f4e487b7100000000000000000000000000000000000000000000000000000000600052604160045260246000fd5b61095b8261070a565b810181811067ffffffffffffffff8211171561097a57610979610923565b5b80604052505050565b600061098d610840565b90506109998282610952565b919050565b600067ffffffffffffffff8211156109b9576109b8610923565b5b6109c28261070a565b9050602081019050919050565b82818337600083830152505050565b60006109f16109ec8461099e565b610983565b905082815260208101848484011115610a0d57610a0c61091e565b5b610a188482856109cf565b509392505050565b600082601f830112610a3557610a34610919565b5b8135610a458482602086016109de565b91505092915050565b600060208284031215610a6457610a6361084a565b5b600082013567ffffffffffffffff811115610a8257610a8161084f565b5b610a8e84828501610a20565b91505092915050565b600073ffffffffffffffffffffffffffffffffffffffff82169050919050565b6000610ac282610a97565b9050919050565b610ad281610ab7565b8114610add57600080fd5b50565b600081359050610aef81610ac9565b92915050565b600060208284031215610b0b57610b0a61084a565b5b6000610b1984828501610ae0565b91505092915050565b60008115159050919050565b610b3781610b22565b82525050565b6000602082019050610b526000830184610b2e565b92915050565b7f4e487b7100000000000000000000000000000000000000000000000000000000600052602260045260246000fd5b60006002820490506001821680610b9f57607f821691505b602082108103610bb257610bb1610b58565b5b50919050565b7f4e487b7100000000000000000000000000000000000000000000000000000000600052603260045260246000fd5b600081905092915050565b60008190508160005260206000209050919050565b60008154610c1481610b87565b610c1e8186610be7565b94506001821660008114610c395760018114610c4e57610c81565b60ff1983168652811515820286019350610c81565b610c5785610bf2565b60005b83811015610c7957815481890152600182019150602081019050610c5a565b838801955050505b50505092915050565b6000610c968284610c07565b915081905092915050565b7f4e487b7100000000000000000000000000000000000000000000000000000000600052601160045260246000fd5b6000610cdb8261080c565b9150610ce68361080c565b9250828201905080821115610cfe57610cfd610ca1565b5b92915050565b6000610d0f8261080c565b91507fffffffffffffffffffffffffffffffffffffffffffffffffffffffffffffffff8203610d4157610d40610ca1565b5b600182019050919050565b7f456c656374696f6e20686173206e6f7420737461727465642079657400000000600082015250565b6000610d82601c836108ad565b9150610d8d82610d4c565b602082019050919050565b60006020820190508181036000830152610db181610d75565b9050919050565b7f456c656374696f6e2068617320656e6465640000000000000000000000000000600082015250565b6000610dee6012836108ad565b9150610df982610db8565b602082019050919050565b60006020820190508181036000830152610e1d81610de1565b9050919050565b7f596f75206861766520616c7265616479206361737420796f757220766f746500600082015250565b6000610e5a601f836108ad565b9150610e6582610e24565b602082019050919050565b60006020820190508181036000830152610e8981610e4d565b9050919050565b6000610e9b826106c4565b610ea58185610be7565b9350610eb58185602086016106e0565b80840191505092915050565b6000610ecd8284610e90565b915081905092915050565b7f546869732063616e6469646174652068617320616c726561647920726561636860008201527f656420746865206d6178696d756d206e756d626572206f6620766f7465730000602082015250565b6000610f34603e836108ad565b9150610f3f82610ed8565b604082019050919050565b60006020820190508181036000830152610f6381610f27565b9050919050565b610f7381610ab7565b82525050565b6000604082019050610f8e6000830185610f6a565b8181036020830152610fa081846108be565b9050939250505056fea264697066735822122094482a2267771b9ec534fe898576a5aa45f65061466900bdb038910f21dba04564736f6c63430008130033",
  "immutableReferences": {},
  "source": "// SPDX-License-Identifier: MIT\r\n\r\npragma solidity ^0.8.0;\r\n\r\ncontract Ballot {\r\n    // List of candidates\r\n    string[] public candidates;\r\n\r\n    // List of votes received by each candidate\r\n    mapping(string => uint256) public votesReceived;\r\n\r\n    // List of voters who have already cast their votes\r\n    mapping(address => bool) public voters;\r\n\r\n    // Election start and end time\r\n    uint256 public startTime;\r\n    uint256 public endTime;\r\n\r\n    // Maximum number of votes per voter\r\n    uint256 public maxVotesPerVoter;\r\n\r\n    // Event to notify when a vote is cast\r\n    event VoteCast(address voter, string candidate);\r\n\r\n    // Constructor to set the election rules\r\n    constructor(string[] memory _candidates, uint256 _startTime, uint256 _endTime, uint256 _maxVotesPerVoter) {\r\n        candidates = _candidates;\r\n        startTime = _startTime;\r\n        endTime = _endTime;\r\n        maxVotesPerVoter = _maxVotesPerVoter;\r\n    }\r\n\r\n    // Function to cast a vote\r\n    function castVote(string memory _candidate) public {\r\n        require(block.timestamp >= startTime, \"Election has not started yet\");\r\n        require(block.timestamp <= endTime, \"Election has ended\");\r\n        require(!voters[msg.sender], \"You have already cast your vote\");\r\n        require(votesReceived[_candidate] < maxVotesPerVoter, \"This candidate has already reached the maximum number of votes\");\r\n\r\n        votesReceived[_candidate]++;\r\n        voters[msg.sender] = true;\r\n\r\n        emit VoteCast(msg.sender, _candidate);\r\n    }\r\n\r\n    // Function to get the total number of votes\r\n    function getTotalVotes() public view returns (uint256) {\r\n        uint256 totalVotes = 0;\r\n\r\n        for (uint256 i = 0; i < candidates.length; i++) {\r\n            totalVotes += votesReceived[candidates[i]];\r\n        }\r\n\r\n        return totalVotes;\r\n    }\r\n\r\n    // Function to get the list of candidates\r\n    function getCandidates() public view returns (string[] memory) {\r\n        return candidates;\r\n    }\r\n}",
  "sourcePath": "C:\\Users\\faraa\\Documents\\GitHub\\BlockchainVotingPlatform\\voting-app\\contracts\\Ballot.sol",
  "compiler": {
    "name": "solc",
    "version": "0.8.19+commit.7dd6d404.Emscripten.clang"
  },
  "schemaVersion": "3.4.13",
  "updatedAt": "2023-03-23T22:00:12.468Z",
  "networkType": "ethereum",
  "devdoc": {
    "kind": "dev",
    "methods": {},
    "version": 1
  },
  "userdoc": {
    "kind": "user",
    "methods": {},
    "version": 1
  }
}