{
  "contractName": "Voter",
  "abi": [
    {
      "inputs": [
        {
          "internalType": "address",
          "name": "_ballot",
          "type": "address"
        }
      ],
      "stateMutability": "nonpayable",
      "type": "constructor"
    },
    {
      "anonymous": false,
      "inputs": [
        {
          "indexed": false,
          "internalType": "address",
          "name": "userAddress",
          "type": "address"
        },
        {
          "indexed": false,
          "internalType": "bytes32",
          "name": "name",
          "type": "bytes32"
        },
        {
          "indexed": false,
          "internalType": "bytes32",
          "name": "email",
          "type": "bytes32"
        }
      ],
      "name": "NewUserRegistered",
      "type": "event"
    },
    {
      "inputs": [],
      "name": "ballot",
      "outputs": [
        {
          "internalType": "contract Ballot",
          "name": "",
          "type": "address"
        }
      ],
      "stateMutability": "view",
      "type": "function",
      "constant": true
    },
    {
      "inputs": [
        {
          "internalType": "bytes32",
          "name": "",
          "type": "bytes32"
        },
        {
          "internalType": "bytes32",
          "name": "",
          "type": "bytes32"
        }
      ],
      "name": "nameEmailToAddress",
      "outputs": [
        {
          "internalType": "bool",
          "name": "",
          "type": "bool"
        }
      ],
      "stateMutability": "view",
      "type": "function",
      "constant": true
    },
    {
      "inputs": [
        {
          "internalType": "address",
          "name": "",
          "type": "address"
        }
      ],
      "name": "users",
      "outputs": [
        {
          "internalType": "bytes32",
          "name": "name",
          "type": "bytes32"
        },
        {
          "internalType": "bytes32",
          "name": "email",
          "type": "bytes32"
        },
        {
          "internalType": "bool",
          "name": "registered",
          "type": "bool"
        }
      ],
      "stateMutability": "view",
      "type": "function",
      "constant": true
    },
    {
      "inputs": [
        {
          "internalType": "bytes32",
          "name": "_name",
          "type": "bytes32"
        },
        {
          "internalType": "bytes32",
          "name": "_email",
          "type": "bytes32"
        }
      ],
      "name": "isUserRegistered",
      "outputs": [
        {
          "internalType": "bool",
          "name": "",
          "type": "bool"
        }
      ],
      "stateMutability": "view",
      "type": "function",
      "constant": true
    },
    {
      "inputs": [
        {
          "internalType": "bytes32",
          "name": "_name",
          "type": "bytes32"
        },
        {
          "internalType": "bytes32",
          "name": "_email",
          "type": "bytes32"
        }
      ],
      "name": "registerUser",
      "outputs": [],
      "stateMutability": "nonpayable",
      "type": "function"
    },
    {
      "inputs": [
        {
          "internalType": "string",
          "name": "_candidate",
          "type": "string"
        }
      ],
      "name": "castVote",
      "outputs": [],
      "stateMutability": "nonpayable",
      "type": "function"
    },
    {
      "inputs": [],
      "name": "isEligible",
      "outputs": [
        {
          "internalType": "bool",
          "name": "",
          "type": "bool"
        }
      ],
      "stateMutability": "view",
      "type": "function",
      "constant": true
    }
  ],
  "bytecode": "0x608060405234801561001057600080fd5b50604051610e50380380610e50833981810160405281019061003291906100db565b806000806101000a81548173ffffffffffffffffffffffffffffffffffffffff021916908373ffffffffffffffffffffffffffffffffffffffff16021790555050610108565b600080fd5b600073ffffffffffffffffffffffffffffffffffffffff82169050919050565b60006100a88261007d565b9050919050565b6100b88161009d565b81146100c357600080fd5b50565b6000815190506100d5816100af565b92915050565b6000602082840312156100f1576100f0610078565b5b60006100ff848285016100c6565b91505092915050565b610d39806101176000396000f3fe608060405234801561001057600080fd5b506004361061009a576000357c0100000000000000000000000000000000000000000000000000000000900480639578853511610078578063957885351461011d5780639cc2d99314610139578063a87430ba14610155578063ac3910a2146101875761009a565b806316b919f91461009f57806343e1ca49146100cf5780634b3f99c9146100ed575b600080fd5b6100b960048036038101906100b491906106ee565b6101a5565b6040516100c69190610749565b60405180910390f35b6100d76101d4565b6040516100e49190610749565b60405180910390f35b610107600480360381019061010291906106ee565b6102ea565b6040516101149190610749565b60405180910390f35b610137600480360381019061013291906106ee565b610326565b005b610153600480360381019061014e91906108aa565b610510565b005b61016f600480360381019061016a9190610951565b610649565b60405161017e9392919061098d565b60405180910390f35b61018f610680565b60405161019c9190610a23565b60405180910390f35b60026020528160005260406000206020528060005260406000206000915091509054906101000a900460ff1681565b6000600160003373ffffffffffffffffffffffffffffffffffffffff1673ffffffffffffffffffffffffffffffffffffffff16815260200190815260200160002060020160009054906101000a900460ff1680156102e5575060008054906101000a900473ffffffffffffffffffffffffffffffffffffffff1673ffffffffffffffffffffffffffffffffffffffff1663a3ec138d336040518263ffffffff167c01000000000000000000000000000000000000000000000000000000000281526004016102a29190610a4d565b602060405180830381865afa1580156102bf573d6000803e3d6000fd5b505050506040513d601f19601f820116820180604052508101906102e39190610a94565b155b905090565b600060026000848152602001908152602001600020600083815260200190815260200160002060009054906101000a900460ff16905092915050565b600160003373ffffffffffffffffffffffffffffffffffffffff1673ffffffffffffffffffffffffffffffffffffffff16815260200190815260200160002060020160009054906101000a900460ff16156103b6576040517f08c379a00000000000000000000000000000000000000000000000000000000081526004016103ad90610b1e565b60405180910390fd5b6103c082826102ea565b15610400576040517f08c379a00000000000000000000000000000000000000000000000000000000081526004016103f790610bb0565b60405180910390fd5b604051806060016040528083815260200182815260200160011515815250600160003373ffffffffffffffffffffffffffffffffffffffff1673ffffffffffffffffffffffffffffffffffffffff168152602001908152602001600020600082015181600001556020820151816001015560408201518160020160006101000a81548160ff021916908315150217905550905050600160026000848152602001908152602001600020600083815260200190815260200160002060006101000a81548160ff0219169083151502179055507f42e29723d48580542a92772b4a9d0bd6c40b85e9ab201538542fcc67b89afc4a33838360405161050493929190610bd0565b60405180910390a15050565b600160003373ffffffffffffffffffffffffffffffffffffffff1673ffffffffffffffffffffffffffffffffffffffff16815260200190815260200160002060020160009054906101000a900460ff1661059f576040517f08c379a000000000000000000000000000000000000000000000000000000000815260040161059690610c53565b60405180910390fd5b60008054906101000a900473ffffffffffffffffffffffffffffffffffffffff1673ffffffffffffffffffffffffffffffffffffffff16639cc2d993826040518263ffffffff167c01000000000000000000000000000000000000000000000000000000000281526004016106149190610ce1565b600060405180830381600087803b15801561062e57600080fd5b505af1158015610642573d6000803e3d6000fd5b5050505050565b60016020528060005260406000206000915090508060000154908060010154908060020160009054906101000a900460ff16905083565b60008054906101000a900473ffffffffffffffffffffffffffffffffffffffff1681565b6000604051905090565b600080fd5b600080fd5b6000819050919050565b6106cb816106b8565b81146106d657600080fd5b50565b6000813590506106e8816106c2565b92915050565b60008060408385031215610705576107046106ae565b5b6000610713858286016106d9565b9250506020610724858286016106d9565b9150509250929050565b60008115159050919050565b6107438161072e565b82525050565b600060208201905061075e600083018461073a565b92915050565b600080fd5b600080fd5b6000601f19601f8301169050919050565b7f4e487b7100000000000000000000000000000000000000000000000000000000600052604160045260246000fd5b6107b78261076e565b810181811067ffffffffffffffff821117156107d6576107d561077f565b5b80604052505050565b60006107e96106a4565b90506107f582826107ae565b919050565b600067ffffffffffffffff8211156108155761081461077f565b5b61081e8261076e565b9050602081019050919050565b82818337600083830152505050565b600061084d610848846107fa565b6107df565b90508281526020810184848401111561086957610868610769565b5b61087484828561082b565b509392505050565b600082601f83011261089157610890610764565b5b81356108a184826020860161083a565b91505092915050565b6000602082840312156108c0576108bf6106ae565b5b600082013567ffffffffffffffff8111156108de576108dd6106b3565b5b6108ea8482850161087c565b91505092915050565b600073ffffffffffffffffffffffffffffffffffffffff82169050919050565b600061091e826108f3565b9050919050565b61092e81610913565b811461093957600080fd5b50565b60008135905061094b81610925565b92915050565b600060208284031215610967576109666106ae565b5b60006109758482850161093c565b91505092915050565b610987816106b8565b82525050565b60006060820190506109a2600083018661097e565b6109af602083018561097e565b6109bc604083018461073a565b949350505050565b6000819050919050565b60006109e96109e46109df846108f3565b6109c4565b6108f3565b9050919050565b60006109fb826109ce565b9050919050565b6000610a0d826109f0565b9050919050565b610a1d81610a02565b82525050565b6000602082019050610a386000830184610a14565b92915050565b610a4781610913565b82525050565b6000602082019050610a626000830184610a3e565b92915050565b610a718161072e565b8114610a7c57600080fd5b50565b600081519050610a8e81610a68565b92915050565b600060208284031215610aaa57610aa96106ae565b5b6000610ab884828501610a7f565b91505092915050565b600082825260208201905092915050565b7f557365722068617320616c726561647920726567697374657265640000000000600082015250565b6000610b08601b83610ac1565b9150610b1382610ad2565b602082019050919050565b60006020820190508181036000830152610b3781610afb565b9050919050565b7f557365722077697468207468652073616d65206e616d6520616e6420656d616960008201527f6c20616c72656164792065786973747300000000000000000000000000000000602082015250565b6000610b9a603083610ac1565b9150610ba582610b3e565b604082019050919050565b60006020820190508181036000830152610bc981610b8d565b9050919050565b6000606082019050610be56000830186610a3e565b610bf2602083018561097e565b610bff604083018461097e565b949350505050565b7f55736572206973206e6f74207265676973746572656400000000000000000000600082015250565b6000610c3d601683610ac1565b9150610c4882610c07565b602082019050919050565b60006020820190508181036000830152610c6c81610c30565b9050919050565b600081519050919050565b60005b83811015610c9c578082015181840152602081019050610c81565b60008484015250505050565b6000610cb382610c73565b610cbd8185610ac1565b9350610ccd818560208601610c7e565b610cd68161076e565b840191505092915050565b60006020820190508181036000830152610cfb8184610ca8565b90509291505056fea2646970667358221220f2e44437723ab4b4582c1a68602fdd1ec02d59a49d6db66881c67cea41d50cf864736f6c63430008130033",
  "immutableReferences": {},
  "source": "// SPDX-License-Identifier: MIT\r\n\r\npragma solidity ^0.8.0;\r\n\r\nimport \"./Ballot.sol\";\r\n\r\ncontract Voter {\r\n    // Reference to the ballot contract\r\n    Ballot public ballot;\r\n\r\n    // Event to notify when a new user registers\r\n    event NewUserRegistered(address userAddress, bytes32 name, bytes32 email);\r\n\r\n    // Struct to store user information\r\n    struct User {\r\n        bytes32 name;\r\n        bytes32 email;\r\n        bool registered;\r\n    }\r\n\r\n    // Mapping to store user information by Ethereum address\r\n    mapping(address => User) public users;\r\n\r\n    mapping(bytes32 => mapping(bytes32 => bool)) public nameEmailToAddress;\r\n\r\n    // Constructor to set the reference to the ballot contract\r\n    constructor(address _ballot) {\r\n        ballot = Ballot(_ballot);\r\n    }\r\n\r\n    function isUserRegistered(bytes32 _name, bytes32 _email) public view returns(bool) {\r\n        return nameEmailToAddress[_name][_email];\r\n    }\r\n\r\n    // Function to register a user\r\n    function registerUser(bytes32 _name, bytes32 _email) public {\r\n        require(!users[msg.sender].registered, \"User has already registered\");\r\n        require(!isUserRegistered(_name, _email), \"User with the same name and email already exists\");\r\n\r\n        users[msg.sender] = User(_name, _email, true);\r\n        nameEmailToAddress[_name][_email] = true;\r\n\r\n        emit NewUserRegistered(msg.sender, _name, _email);\r\n    }\r\n\r\n    // Function to cast a vote\r\n    function castVote(string memory _candidate) public {\r\n        require(users[msg.sender].registered, \"User is not registered\");\r\n        ballot.castVote(_candidate);\r\n    }\r\n\r\n    // Remove function\r\n    // Function to check if the voter is eligible to vote\r\n    function isEligible() public view returns (bool) {\r\n        return users[msg.sender].registered && !ballot.voters(msg.sender);\r\n    }\r\n}\r\n",
  "sourcePath": "C:\\Users\\faraa\\Documents\\GitHub\\BlockchainVotingPlatform\\voting-app\\contracts\\Voter.sol",
  "compiler": {
    "name": "solc",
    "version": "0.8.19+commit.7dd6d404.Emscripten.clang"
  },
  "schemaVersion": "3.4.13",
  "updatedAt": "2023-03-24T21:38:38.625Z",
  "networkType": "ethereum",
  "devdoc": {
    "kind": "dev",
    "methods": {},
    "version": 1
  },
  "userdoc": {
    "kind": "user",
    "methods": {},
    "version": 1
  }
}