{
  "contractName": "Voter",
  "abi": [
    {
      "inputs": [
        {
          "internalType": "address",
          "name": "_ballot",
          "type": "address"
        }
      ],
      "stateMutability": "nonpayable",
      "type": "constructor"
    },
    {
      "anonymous": false,
      "inputs": [
        {
          "indexed": false,
          "internalType": "address",
          "name": "userAddress",
          "type": "address"
        },
        {
          "indexed": false,
          "internalType": "bytes32",
          "name": "name",
          "type": "bytes32"
        },
        {
          "indexed": false,
          "internalType": "bytes32",
          "name": "email",
          "type": "bytes32"
        }
      ],
      "name": "NewUserRegistered",
      "type": "event"
    },
    {
      "inputs": [],
      "name": "ballot",
      "outputs": [
        {
          "internalType": "contract Ballot",
          "name": "",
          "type": "address"
        }
      ],
      "stateMutability": "view",
      "type": "function",
      "constant": true
    },
    {
      "inputs": [
        {
          "internalType": "bytes32",
          "name": "",
          "type": "bytes32"
        },
        {
          "internalType": "bytes32",
          "name": "",
          "type": "bytes32"
        }
      ],
      "name": "nameEmailToAddress",
      "outputs": [
        {
          "internalType": "address",
          "name": "",
          "type": "address"
        }
      ],
      "stateMutability": "view",
      "type": "function",
      "constant": true
    },
    {
      "inputs": [
        {
          "internalType": "address",
          "name": "",
          "type": "address"
        }
      ],
      "name": "users",
      "outputs": [
        {
          "internalType": "bytes32",
          "name": "name",
          "type": "bytes32"
        },
        {
          "internalType": "bytes32",
          "name": "email",
          "type": "bytes32"
        },
        {
          "internalType": "bool",
          "name": "registered",
          "type": "bool"
        }
      ],
      "stateMutability": "view",
      "type": "function",
      "constant": true
    },
    {
      "inputs": [
        {
          "internalType": "bytes32",
          "name": "_name",
          "type": "bytes32"
        },
        {
          "internalType": "bytes32",
          "name": "_email",
          "type": "bytes32"
        }
      ],
      "name": "registerUser",
      "outputs": [],
      "stateMutability": "nonpayable",
      "type": "function"
    },
    {
      "inputs": [
        {
          "internalType": "string",
          "name": "_candidate",
          "type": "string"
        }
      ],
      "name": "castVote",
      "outputs": [],
      "stateMutability": "nonpayable",
      "type": "function"
    },
    {
      "inputs": [],
      "name": "isEligible",
      "outputs": [
        {
          "internalType": "bool",
          "name": "",
          "type": "bool"
        }
      ],
      "stateMutability": "view",
      "type": "function",
      "constant": true
    }
  ],
  "bytecode": "0x608060405234801561001057600080fd5b50604051610e6b380380610e6b833981810160405281019061003291906100db565b806000806101000a81548173ffffffffffffffffffffffffffffffffffffffff021916908373ffffffffffffffffffffffffffffffffffffffff16021790555050610108565b600080fd5b600073ffffffffffffffffffffffffffffffffffffffff82169050919050565b60006100a88261007d565b9050919050565b6100b88161009d565b81146100c357600080fd5b50565b6000815190506100d5816100af565b92915050565b6000602082840312156100f1576100f0610078565b5b60006100ff848285016100c6565b91505092915050565b610d54806101176000396000f3fe608060405234801561001057600080fd5b506004361061007f576000357c01000000000000000000000000000000000000000000000000000000009004806316b919f91461008457806343e1ca49146100b457806395788535146100d25780639cc2d993146100ee578063a87430ba1461010a578063ac3910a21461013c575b600080fd5b61009e60048036038101906100999190610709565b61015a565b6040516100ab919061078a565b60405180910390f35b6100bc61019c565b6040516100c991906107c0565b60405180910390f35b6100ec60048036038101906100e79190610709565b6102b2565b005b61010860048036038101906101039190610921565b61052b565b005b610124600480360381019061011f9190610996565b610664565b604051610133939291906109d2565b60405180910390f35b61014461069b565b6040516101519190610a68565b60405180910390f35b60026020528160005260406000206020528060005260406000206000915091509054906101000a900473ffffffffffffffffffffffffffffffffffffffff1681565b6000600160003373ffffffffffffffffffffffffffffffffffffffff1673ffffffffffffffffffffffffffffffffffffffff16815260200190815260200160002060020160009054906101000a900460ff1680156102ad575060008054906101000a900473ffffffffffffffffffffffffffffffffffffffff1673ffffffffffffffffffffffffffffffffffffffff1663a3ec138d336040518263ffffffff167c010000000000000000000000000000000000000000000000000000000002815260040161026a919061078a565b602060405180830381865afa158015610287573d6000803e3d6000fd5b505050506040513d601f19601f820116820180604052508101906102ab9190610aaf565b155b905090565b600160003373ffffffffffffffffffffffffffffffffffffffff1673ffffffffffffffffffffffffffffffffffffffff16815260200190815260200160002060020160009054906101000a900460ff1615610342576040517f08c379a000000000000000000000000000000000000000000000000000000000815260040161033990610b39565b60405180910390fd5b600073ffffffffffffffffffffffffffffffffffffffff1660026000848152602001908152602001600020600083815260200190815260200160002060009054906101000a900473ffffffffffffffffffffffffffffffffffffffff1673ffffffffffffffffffffffffffffffffffffffff16146103f5576040517f08c379a00000000000000000000000000000000000000000000000000000000081526004016103ec90610bcb565b60405180910390fd5b3360026000848152602001908152602001600020600083815260200190815260200160002060006101000a81548173ffffffffffffffffffffffffffffffffffffffff021916908373ffffffffffffffffffffffffffffffffffffffff160217905550604051806060016040528083815260200182815260200160011515815250600160003373ffffffffffffffffffffffffffffffffffffffff1673ffffffffffffffffffffffffffffffffffffffff168152602001908152602001600020600082015181600001556020820151816001015560408201518160020160006101000a81548160ff0219169083151502179055509050507f42e29723d48580542a92772b4a9d0bd6c40b85e9ab201538542fcc67b89afc4a33838360405161051f93929190610beb565b60405180910390a15050565b600160003373ffffffffffffffffffffffffffffffffffffffff1673ffffffffffffffffffffffffffffffffffffffff16815260200190815260200160002060020160009054906101000a900460ff166105ba576040517f08c379a00000000000000000000000000000000000000000000000000000000081526004016105b190610c6e565b60405180910390fd5b60008054906101000a900473ffffffffffffffffffffffffffffffffffffffff1673ffffffffffffffffffffffffffffffffffffffff16639cc2d993826040518263ffffffff167c010000000000000000000000000000000000000000000000000000000002815260040161062f9190610cfc565b600060405180830381600087803b15801561064957600080fd5b505af115801561065d573d6000803e3d6000fd5b5050505050565b60016020528060005260406000206000915090508060000154908060010154908060020160009054906101000a900460ff16905083565b60008054906101000a900473ffffffffffffffffffffffffffffffffffffffff1681565b6000604051905090565b600080fd5b600080fd5b6000819050919050565b6106e6816106d3565b81146106f157600080fd5b50565b600081359050610703816106dd565b92915050565b600080604083850312156107205761071f6106c9565b5b600061072e858286016106f4565b925050602061073f858286016106f4565b9150509250929050565b600073ffffffffffffffffffffffffffffffffffffffff82169050919050565b600061077482610749565b9050919050565b61078481610769565b82525050565b600060208201905061079f600083018461077b565b92915050565b60008115159050919050565b6107ba816107a5565b82525050565b60006020820190506107d560008301846107b1565b92915050565b600080fd5b600080fd5b6000601f19601f8301169050919050565b7f4e487b7100000000000000000000000000000000000000000000000000000000600052604160045260246000fd5b61082e826107e5565b810181811067ffffffffffffffff8211171561084d5761084c6107f6565b5b80604052505050565b60006108606106bf565b905061086c8282610825565b919050565b600067ffffffffffffffff82111561088c5761088b6107f6565b5b610895826107e5565b9050602081019050919050565b82818337600083830152505050565b60006108c46108bf84610871565b610856565b9050828152602081018484840111156108e0576108df6107e0565b5b6108eb8482856108a2565b509392505050565b600082601f830112610908576109076107db565b5b81356109188482602086016108b1565b91505092915050565b600060208284031215610937576109366106c9565b5b600082013567ffffffffffffffff811115610955576109546106ce565b5b610961848285016108f3565b91505092915050565b61097381610769565b811461097e57600080fd5b50565b6000813590506109908161096a565b92915050565b6000602082840312156109ac576109ab6106c9565b5b60006109ba84828501610981565b91505092915050565b6109cc816106d3565b82525050565b60006060820190506109e760008301866109c3565b6109f460208301856109c3565b610a0160408301846107b1565b949350505050565b6000819050919050565b6000610a2e610a29610a2484610749565b610a09565b610749565b9050919050565b6000610a4082610a13565b9050919050565b6000610a5282610a35565b9050919050565b610a6281610a47565b82525050565b6000602082019050610a7d6000830184610a59565b92915050565b610a8c816107a5565b8114610a9757600080fd5b50565b600081519050610aa981610a83565b92915050565b600060208284031215610ac557610ac46106c9565b5b6000610ad384828501610a9a565b91505092915050565b600082825260208201905092915050565b7f557365722068617320616c726561647920726567697374657265640000000000600082015250565b6000610b23601b83610adc565b9150610b2e82610aed565b602082019050919050565b60006020820190508181036000830152610b5281610b16565b9050919050565b7f557365722077697468207468652073616d65206e616d6520616e6420656d616960008201527f6c20616c72656164792065786973747300000000000000000000000000000000602082015250565b6000610bb5603083610adc565b9150610bc082610b59565b604082019050919050565b60006020820190508181036000830152610be481610ba8565b9050919050565b6000606082019050610c00600083018661077b565b610c0d60208301856109c3565b610c1a60408301846109c3565b949350505050565b7f55736572206973206e6f74207265676973746572656400000000000000000000600082015250565b6000610c58601683610adc565b9150610c6382610c22565b602082019050919050565b60006020820190508181036000830152610c8781610c4b565b9050919050565b600081519050919050565b60005b83811015610cb7578082015181840152602081019050610c9c565b60008484015250505050565b6000610cce82610c8e565b610cd88185610adc565b9350610ce8818560208601610c99565b610cf1816107e5565b840191505092915050565b60006020820190508181036000830152610d168184610cc3565b90509291505056fea2646970667358221220d00c2ae27d757874eb27dad9e1ddbf40b50b70876d4dc5a543057009626c005664736f6c63430008130033",
  "immutableReferences": {},
  "source": "// SPDX-License-Identifier: MIT\r\n\r\npragma solidity ^0.8.0;\r\n\r\nimport \"./Ballot.sol\";\r\n\r\ncontract Voter {\r\n    // Reference to the ballot contract\r\n    Ballot public ballot;\r\n\r\n    // Event to notify when a new user registers\r\n    event NewUserRegistered(address userAddress, bytes32 name, bytes32 email);\r\n\r\n    // Struct to store user information\r\n    struct User {\r\n        bytes32 name;\r\n        bytes32 email;\r\n        bool registered;\r\n    }\r\n\r\n    // Mapping to store user information by Ethereum address\r\n    mapping(address => User) public users;\r\n\r\n    mapping(bytes32 => mapping(bytes32 => address)) public nameEmailToAddress;\r\n\r\n    // Constructor to set the reference to the ballot contract\r\n    constructor(address _ballot) {\r\n        ballot = Ballot(_ballot);\r\n    }\r\n\r\n    // Function to register a user\r\n    function registerUser(bytes32 _name, bytes32 _email) public {\r\n        require(!users[msg.sender].registered, \"User has already registered\");\r\n        require(nameEmailToAddress[_name][_email] == address(0), \"User with the same name and email already exists\");\r\n\r\n        nameEmailToAddress[_name][_email] = msg.sender;\r\n        users[msg.sender] = User(_name, _email, true);\r\n\r\n        emit NewUserRegistered(msg.sender, _name, _email);\r\n    }\r\n\r\n    // Function to cast a vote\r\n    function castVote(string memory _candidate) public {\r\n        require(users[msg.sender].registered, \"User is not registered\");\r\n        ballot.castVote(_candidate);\r\n    }\r\n\r\n    // Remove function\r\n    // Function to check if the voter is eligible to vote\r\n    function isEligible() public view returns (bool) {\r\n        return users[msg.sender].registered && !ballot.voters(msg.sender);\r\n    }\r\n}\r\n",
  "sourcePath": "C:\\Users\\faraa\\Documents\\GitHub\\BlockchainVotingPlatform\\voting-app\\contracts\\Voter.sol",
  "compiler": {
    "name": "solc",
    "version": "0.8.19+commit.7dd6d404.Emscripten.clang"
  },
  "schemaVersion": "3.4.13",
  "updatedAt": "2023-03-24T10:31:03.097Z",
  "networkType": "ethereum",
  "devdoc": {
    "kind": "dev",
    "methods": {},
    "version": 1
  },
  "userdoc": {
    "kind": "user",
    "methods": {},
    "version": 1
  }
}