{
  "contractName": "Voter",
  "abi": [
    {
      "inputs": [
        {
          "internalType": "address",
          "name": "_ballot",
          "type": "address"
        }
      ],
      "stateMutability": "nonpayable",
      "type": "constructor"
    },
    {
      "anonymous": false,
      "inputs": [
        {
          "indexed": false,
          "internalType": "address",
          "name": "userAddress",
          "type": "address"
        },
        {
          "indexed": false,
          "internalType": "bytes32",
          "name": "name",
          "type": "bytes32"
        },
        {
          "indexed": false,
          "internalType": "bytes32",
          "name": "email",
          "type": "bytes32"
        }
      ],
      "name": "NewUserRegistered",
      "type": "event"
    },
    {
      "inputs": [],
      "name": "ballot",
      "outputs": [
        {
          "internalType": "contract Ballot",
          "name": "",
          "type": "address"
        }
      ],
      "stateMutability": "view",
      "type": "function",
      "constant": true
    },
    {
      "inputs": [
        {
          "internalType": "address",
          "name": "",
          "type": "address"
        }
      ],
      "name": "users",
      "outputs": [
        {
          "internalType": "bytes32",
          "name": "name",
          "type": "bytes32"
        },
        {
          "internalType": "bytes32",
          "name": "email",
          "type": "bytes32"
        },
        {
          "internalType": "bool",
          "name": "registered",
          "type": "bool"
        }
      ],
      "stateMutability": "view",
      "type": "function",
      "constant": true
    },
    {
      "inputs": [
        {
          "internalType": "bytes32",
          "name": "_name",
          "type": "bytes32"
        },
        {
          "internalType": "bytes32",
          "name": "_email",
          "type": "bytes32"
        }
      ],
      "name": "registerUser",
      "outputs": [],
      "stateMutability": "nonpayable",
      "type": "function"
    },
    {
      "inputs": [
        {
          "internalType": "string",
          "name": "_candidate",
          "type": "string"
        }
      ],
      "name": "castVote",
      "outputs": [],
      "stateMutability": "nonpayable",
      "type": "function"
    },
    {
      "inputs": [],
      "name": "isEligible",
      "outputs": [
        {
          "internalType": "bool",
          "name": "",
          "type": "bool"
        }
      ],
      "stateMutability": "view",
      "type": "function",
      "constant": true
    }
  ],
  "bytecode": "0x608060405234801561001057600080fd5b50604051610c46380380610c46833981810160405281019061003291906100db565b806000806101000a81548173ffffffffffffffffffffffffffffffffffffffff021916908373ffffffffffffffffffffffffffffffffffffffff16021790555050610108565b600080fd5b600073ffffffffffffffffffffffffffffffffffffffff82169050919050565b60006100a88261007d565b9050919050565b6100b88161009d565b81146100c357600080fd5b50565b6000815190506100d5816100af565b92915050565b6000602082840312156100f1576100f0610078565b5b60006100ff848285016100c6565b91505092915050565b610b2f806101176000396000f3fe608060405234801561001057600080fd5b5060043610610074576000357c01000000000000000000000000000000000000000000000000000000009004806343e1ca491461007957806395788535146100975780639cc2d993146100b3578063a87430ba146100cf578063ac3910a214610101575b600080fd5b61008161011f565b60405161008e9190610547565b60405180910390f35b6100b160048036038101906100ac91906105ac565b610235565b005b6100cd60048036038101906100c89190610732565b610398565b005b6100e960048036038101906100e491906107d9565b6104d1565b6040516100f893929190610815565b60405180910390f35b610109610508565b60405161011691906108ab565b60405180910390f35b6000600160003373ffffffffffffffffffffffffffffffffffffffff1673ffffffffffffffffffffffffffffffffffffffff16815260200190815260200160002060020160009054906101000a900460ff168015610230575060008054906101000a900473ffffffffffffffffffffffffffffffffffffffff1673ffffffffffffffffffffffffffffffffffffffff1663a3ec138d336040518263ffffffff167c01000000000000000000000000000000000000000000000000000000000281526004016101ed91906108d5565b602060405180830381865afa15801561020a573d6000803e3d6000fd5b505050506040513d601f19601f8201168201806040525081019061022e919061091c565b155b905090565b600160003373ffffffffffffffffffffffffffffffffffffffff1673ffffffffffffffffffffffffffffffffffffffff16815260200190815260200160002060020160009054906101000a900460ff16156102c5576040517f08c379a00000000000000000000000000000000000000000000000000000000081526004016102bc906109a6565b60405180910390fd5b604051806060016040528083815260200182815260200160011515815250600160003373ffffffffffffffffffffffffffffffffffffffff1673ffffffffffffffffffffffffffffffffffffffff168152602001908152602001600020600082015181600001556020820151816001015560408201518160020160006101000a81548160ff0219169083151502179055509050507f42e29723d48580542a92772b4a9d0bd6c40b85e9ab201538542fcc67b89afc4a33838360405161038c939291906109c6565b60405180910390a15050565b600160003373ffffffffffffffffffffffffffffffffffffffff1673ffffffffffffffffffffffffffffffffffffffff16815260200190815260200160002060020160009054906101000a900460ff16610427576040517f08c379a000000000000000000000000000000000000000000000000000000000815260040161041e90610a49565b60405180910390fd5b60008054906101000a900473ffffffffffffffffffffffffffffffffffffffff1673ffffffffffffffffffffffffffffffffffffffff16639cc2d993826040518263ffffffff167c010000000000000000000000000000000000000000000000000000000002815260040161049c9190610ad7565b600060405180830381600087803b1580156104b657600080fd5b505af11580156104ca573d6000803e3d6000fd5b5050505050565b60016020528060005260406000206000915090508060000154908060010154908060020160009054906101000a900460ff16905083565b60008054906101000a900473ffffffffffffffffffffffffffffffffffffffff1681565b60008115159050919050565b6105418161052c565b82525050565b600060208201905061055c6000830184610538565b92915050565b6000604051905090565b600080fd5b600080fd5b6000819050919050565b61058981610576565b811461059457600080fd5b50565b6000813590506105a681610580565b92915050565b600080604083850312156105c3576105c261056c565b5b60006105d185828601610597565b92505060206105e285828601610597565b9150509250929050565b600080fd5b600080fd5b6000601f19601f8301169050919050565b7f4e487b7100000000000000000000000000000000000000000000000000000000600052604160045260246000fd5b61063f826105f6565b810181811067ffffffffffffffff8211171561065e5761065d610607565b5b80604052505050565b6000610671610562565b905061067d8282610636565b919050565b600067ffffffffffffffff82111561069d5761069c610607565b5b6106a6826105f6565b9050602081019050919050565b82818337600083830152505050565b60006106d56106d084610682565b610667565b9050828152602081018484840111156106f1576106f06105f1565b5b6106fc8482856106b3565b509392505050565b600082601f830112610719576107186105ec565b5b81356107298482602086016106c2565b91505092915050565b6000602082840312156107485761074761056c565b5b600082013567ffffffffffffffff81111561076657610765610571565b5b61077284828501610704565b91505092915050565b600073ffffffffffffffffffffffffffffffffffffffff82169050919050565b60006107a68261077b565b9050919050565b6107b68161079b565b81146107c157600080fd5b50565b6000813590506107d3816107ad565b92915050565b6000602082840312156107ef576107ee61056c565b5b60006107fd848285016107c4565b91505092915050565b61080f81610576565b82525050565b600060608201905061082a6000830186610806565b6108376020830185610806565b6108446040830184610538565b949350505050565b6000819050919050565b600061087161086c6108678461077b565b61084c565b61077b565b9050919050565b600061088382610856565b9050919050565b600061089582610878565b9050919050565b6108a58161088a565b82525050565b60006020820190506108c0600083018461089c565b92915050565b6108cf8161079b565b82525050565b60006020820190506108ea60008301846108c6565b92915050565b6108f98161052c565b811461090457600080fd5b50565b600081519050610916816108f0565b92915050565b6000602082840312156109325761093161056c565b5b600061094084828501610907565b91505092915050565b600082825260208201905092915050565b7f557365722068617320616c726561647920726567697374657265640000000000600082015250565b6000610990601b83610949565b915061099b8261095a565b602082019050919050565b600060208201905081810360008301526109bf81610983565b9050919050565b60006060820190506109db60008301866108c6565b6109e86020830185610806565b6109f56040830184610806565b949350505050565b7f55736572206973206e6f74207265676973746572656400000000000000000000600082015250565b6000610a33601683610949565b9150610a3e826109fd565b602082019050919050565b60006020820190508181036000830152610a6281610a26565b9050919050565b600081519050919050565b60005b83811015610a92578082015181840152602081019050610a77565b60008484015250505050565b6000610aa982610a69565b610ab38185610949565b9350610ac3818560208601610a74565b610acc816105f6565b840191505092915050565b60006020820190508181036000830152610af18184610a9e565b90509291505056fea26469706673582212207496701dcdd0a7a8f1f4a0a26d3560ea513eb95a9dc4a769a7bfe76e3781af9c64736f6c63430008130033",
  "immutableReferences": {},
  "source": "// SPDX-License-Identifier: MIT\r\n\r\npragma solidity ^0.8.0;\r\n\r\nimport \"./Ballot.sol\";\r\n\r\ncontract Voter {\r\n    // Reference to the ballot contract\r\n    Ballot public ballot;\r\n\r\n    // Event to notify when a new user registers\r\n    event NewUserRegistered(address userAddress, bytes32 name, bytes32 email);\r\n\r\n    // Struct to store user information\r\n    struct User {\r\n        bytes32 name;\r\n        bytes32 email;\r\n        bool registered;\r\n    }\r\n\r\n    // Mapping to store user information by Ethereum address\r\n    mapping(address => User) public users;\r\n\r\n    // Constructor to set the reference to the ballot contract\r\n    constructor(address _ballot) {\r\n        ballot = Ballot(_ballot);\r\n    }\r\n\r\n    // Function to register a user\r\n    function registerUser(bytes32 _name, bytes32 _email) public {\r\n        require(!users[msg.sender].registered, \"User has already registered\");\r\n\r\n        users[msg.sender] = User(_name, _email, true);\r\n\r\n        emit NewUserRegistered(msg.sender, _name, _email);\r\n    }\r\n\r\n    // Function to cast a vote\r\n    function castVote(string memory _candidate) public {\r\n        require(users[msg.sender].registered, \"User is not registered\");\r\n        ballot.castVote(_candidate);\r\n    }\r\n\r\n    // Function to check if the voter is eligible to vote\r\n    function isEligible() public view returns (bool) {\r\n        return users[msg.sender].registered && !ballot.voters(msg.sender);\r\n    }\r\n}\r\n",
  "sourcePath": "C:\\Users\\faraa\\Documents\\GitHub\\BlockchainVotingPlatform\\voting-app\\contracts\\Voter.sol",
  "compiler": {
    "name": "solc",
    "version": "0.8.19+commit.7dd6d404.Emscripten.clang"
  },
  "schemaVersion": "3.4.13",
  "updatedAt": "2023-03-23T05:43:17.276Z",
  "networkType": "ethereum",
  "devdoc": {
    "kind": "dev",
    "methods": {},
    "version": 1
  },
  "userdoc": {
    "kind": "user",
    "methods": {},
    "version": 1
  }
}